:1000000008308A00E02B0000FF00030E8301A500EA
:100010000A08A4008A010408A6007708A700780847
:10002000A8007908A9007A08AA007B08AB0083130E
:1000300083128C308400001C1F280C1832282608DC
:1000400084002708F7002808F8002908F9002A0882
:10005000FA002B08FB0024088A00250E8300FF0EFF
:100060007F0E09008A110A12B92A0A108A100A1191
:100070008207203420342034203441344234523436
:1000800049344E3444344F34203420342034203426
:100090002034203400340A108A100A1182072034D8
:1000A00020342034203420342034203420342034B0
:1000B00020342034203420342034203420340034C0
:1000C0000A108A100A1182072E342034203420347A
:1000D0002034203420342034203420342034203480
:1000E000203420342034203400340A108A100A11BD
:1000F00082072E342E34203420342034203420340F
:10010000203420342034203420342034203420344F
:10011000203400340A108A100A1182072E342E343B
:100120002E34203420342034203420342034203421
:1001300020342034203420342034203400340A1079
:100140008A100A118207203450344F345234543408
:1001500041344C34203441344234453452345434E4
:100160004F34203400340A108A100A1182072034D8
:1001700020342034463445344334483441344E34FA
:1001800044344F342034203420342034203400349C
:100190000A108A100A118207203450344F34523426
:1001A000543441344C342034463445344334483498
:1001B000413444344F34203400340A108A100A1178
:1001C000820720344134623472346934723420340A
:1001D0002034203420344634653463346834613448
:1001E000723420342034203400340A108A100A116A
:1001F000FC3E03188A0A820020345E342034203406
:10020000203420342034203420342034203420344E
:100210002034203420342034203400340A148A104E
:100220000A11820720342034203420342034203432
:1002300020342034203420345E34203420342034E0
:1002400020342034203400340A148A100A11820722
:100250004E346F34763461342034533465346E3424
:10026000683461343A3400340A148A100A1182075F
:1002700020342034203420342034203420342034DE
:1002800020342034203400340A148A100A118207E2
:100290002034203400340A148A100A1182075E3494
:1002A00020342034203400340A148A100A118207C2
:1002B00020345E342034203400340A148A100A11A9
:1002C0008207203420345E34203400340A148A102B
:1002D0000A1182072034203420345E3400340A149A
:1002E0008A100A11820776346534723469346634B0
:1002F0006934633461346E3464346F342E342034A2
:1003000020342034203400340A148A100A11820761
:1003100076346534723469346634693463346134F4
:100320006E3464346F342E342E3420342034203430
:1003300000340A148A100A11820776346534723444
:10034000693466346934633461346E3464346F34D0
:100350002E342E342E342034203400340A148A10E3
:100360000A1182077634653472346934663469342C
:10037000633461346E3464346F342E342E342E344E
:100380002E34203400340A148A100A1182075334A0
:1003900065346E3468346134203449346E346334E7
:1003A0006F347234723465347434613420342034E0
:1003B00000340A148A100A118207203420342034B1
:1003C000533465346E34683461343A3400340A147A
:1003D0008A100A11820720342034203400340A1491
:1003E0008A100A118207203420342034203420342B
:1003F000203420342034203400340A108A140A11A6
:100400008207203420342034203420344F344E34BA
:100410004C3449344E344534203420342034203494
:10042000203400340A108A140A11820753344134EC
:10043000493452342034503441345234413420341D
:1004400046344534433448344134523400340A107D
:100450008A140A11820742344134493458344F34E3
:100460002034503441345234413420344134423405
:1004700052344934523400340A108A140A11820763
:10048000423445344D342034563449344E344434A7
:100490004F3420342034203420342034203420348D
:1004A00000340A108A140A118207203420342034C0
:1004B0002034203420342034203420344F34463447
:1004C00046344C3449344E34453400340A108A14CE
:1004D0000A11820745344634453454345534413486
:1004E000523420342034203420342034203420343A
:1004F0002034203400340A108A140A118207203470
:10050000203420342034203420342034203420344B
:10051000203420344C344F34473449344E34003482
:100520000A108A140A11820743344F344D3441347F
:100530004E34443441345234203420342034203476
:1005400020342034203400340A108A140A1182071F
:1005500020342034203420342034203420342034FB
:10056000203420344C344F344734413444344F34F5
:1005700000343C308F00AF308E00AD0A2D08023CB5
:10058000031DC42AAE0AAD012E080A3C031DCA2A67
:10059000A30AAE018316061483120618D52A3B104F
:1005A0003B088316870083120710831606158312F3
:1005B0000619E02ABB103B088316870083128710B8
:1005C000831686178312861B012B8316061483124B
:1005D000061C012B831606158312061D012B3B10EA
:1005E0003B088316870083120710BB103B08831655
:1005F0008700831287103B103B0883168700831205
:10060000071423083B3C0318062BA3010C108A1186
:100610000A121F283F3084008313000803191E2B81
:100620000130F800F701F70B132BF80B122B4A30AF
:10063000F700F70B192B1C2B800B102B0034BB136E
:100640003B0883168700831287170330F700F70BE8
:10065000272BBB133B0883168700831287130034B4
:100660000F30BF000A23BB133B0883168700831299
:1006700087133B123B0883168700831207128316E9
:1006800088013030831288001F230430BF000A2302
:100690001F232130F700F70B4B2B1F230D30F700E2
:1006A000F70B502B831688012030831288001F23FC
:1006B0000D30F700F70B5A2B831688012030831278
:1006C00088001F23831688018030831288001F232F
:1006D0000D30F700F70B6A2B83168801831288010F
:1006E0001F23831688011030831288001F230230D5
:1006F000BF000A2383168801831288011F238316F3
:100700008801C030831288001F230D30F700F70BDB
:10071000872B83168801831288011F238316880183
:100720006030831288001F230D30F700F70B962BE3
:100730008A150A12432C3B123B088316870083124A
:10074000071283168801831288011F2383168801EC
:100750001030831288001F230230BF000A230034A8
:10076000C0013B123B0883168700831207123F0823
:100770000319BE2B013A0319C12BC42B8030C000D2
:10078000C42BC030C000C42B3E08F03E0318F92B28
:10079000103E0A2CC101F92B1030C100F92B20307A
:1007A000C100F92B3030C100F92B4030C100F92BCA
:1007B0005030C100F92B6030C100F92B7030C100FE
:1007C000F92B8030C100F92B9030C100F92BA030FB
:1007D000C100F92BB030C100F92BC030C100F92B9A
:1007E000D030C100F92BE030C100F92BF030C1004E
:1007F000F92B831688018312400888001F23831673
:1008000088018312410888001F230D30F700F70B81
:10081000072C00340A108A100A158207CA2BCC2B29
:10082000CF2BD22BD52BD82BDB2BDE2BE12BE42BA4
:10083000E72BEA2BED2BF02BF32BF62B3F0EC00012
:10084000F030C0053B123B08831687008312071661
:100850008316880183123F0888001F2383168801AE
:100860008312400888001F230D30F700F70B362C49
:100870000034B91C222DBE01BF01B023BE013E08C9
:10088000B32000380319482CBE0ABF001E243F2C99
:10089000BE010130BF00B023BE013E086020003819
:1008A0000319562CBE0ABF001E244D2CBB123B0858
:1008B00083168700831287120230BE009630BF0075
:1008C0000A23BE0B5E2CBE010130BF00B023BE0167
:1008D0003E08752000380319712CBE0ABF001E2483
:1008E000682CBB123B0883168700831287160230E0
:1008F000BE009630BF000A23BE0B792CBE0101302A
:10090000BF00B023BE013E088A20003803198C2C9A
:10091000BE0ABF001E24832CBB123B08831687002F
:10092000831287120230BE009630BF000A23BE0B2E
:10093000942CBE010130BF00B023BE013E084B2005
:1009400000380319A72CBE0ABF001E249E2CBB1220
:100950003B0883168700831287160230BE0096304C
:10096000BF000A23BE0BAF2CBB123B0883168700C7
:1009700083128712831606158312061DCB2CBB101B
:100980003B0883168700831287143B103B088316AD
:100990008700831207108316061583120619222D6D
:1009A000BE01BF01B023BE013E08C82000380319B4
:1009B000DD2CBE0ABF001E24D42C0330BE00C8307C
:1009C000BF000A23BE0BDF2CBE01BF01B023BE0156
:1009D0003E084B2000380319F12CBE0ABF001E242C
:1009E000E82C0330BE00C830BF000A23BE0BF32C36
:1009F000BE010130BF00B023BE013E08C820003850
:100A00000319062DBE0ABF001E24FD2C0330BE00B4
:100A1000C830BF000A23BE0B082DBE010130BF0045
:100A2000B023BE013E084B20003803191B2DBE0A1F
:100A3000BF001E24122D0330BE00C830BF000A23A1
:100A4000BE0B1D2DA201A1010034B91C152EBE0143
:100A5000BF01B023BE013E08352000380319342DF4
:100A6000BE0ABF001E242B2DBE010130BF00B023E3
:100A7000BE013E084B2000380319422DBE0ABF00BC
:100A80001E24392DBB123B0883168700831287165C
:100A90000230BE009630BF000A23BE0B4A2DBE01B5
:100AA0000130BF00B023BE013E08602000380319AA
:100AB0005D2DBE0ABF001E24542DBB123B088316B9
:100AC0008700831287120230BE009630BF000A23CF
:100AD000BE0B652DBE010130BF00B023BE013E0834
:100AE000752000380319782DBE0ABF001E246F2D13
:100AF000BB123B0883168700831287160230BE00A4
:100B00009630BF000A23BE0B802DBE010130BF000E
:100B1000B023BE013E088A2000380319932DBE0A77
:100B2000BF001E248A2DBB123B0883168700831248
:100B300087120230BE009630BF000A23BE0B9B2DE9
:100B4000BB123B088316870083128716BE013E083E
:100B50004B2000380319B02DBE0ABF001E24A72D5C
:100B6000831606148312061CC12D3B103B08831606
:100B7000870083120714BB103B088316870083127B
:100B800087108316061483120618152EBE01BF01A6
:100B9000B023BE013E089F2000380319D32DBE0AA2
:100BA000BF001E24CA2D0330BE00C830BF000A2378
:100BB000BE0BD52DBE013E084B2000380319E42D95
:100BC000BE0ABF001E24DB2D0330BE00C830BF00AC
:100BD0000A23BE0BE62DBE010130BF00B023BE01CB
:100BE0003E089F2000380319F92DBE0ABF001E24BD
:100BF000F02D0330BE00C830BF000A23BE0BFB2D12
:100C0000BE010130BF00B023BE013E084B200038BA
:100C100003190E2EBE0ABF001E24052E0330BE008F
:100C2000C830BF000A23BE0B102EA201A101003460
:100C3000391C352E3819352EA108031D352EA20872
:100C4000031D352EAC0A391C352E3819352EA10856
:100C5000031D352EA208031D352E2C08143C031845
:100C6000352EAC01381539102525381F522E38196C
:100C7000522EA108031D522EA208031D522EAC0AAB
:100C8000381F522E3819522EA108031D522EA208C9
:100C9000031D522E2C08143C0318522EAC0138159B
:100CA00038133924B81E5A2E38195A2E3815B8124E
:100CB0002108A200B81D652E3819652EA10338152C
:100CC000B811210F652E0130A100381E712E381980
:100CD000712EA10A381538122108023C031D712E0D
:100CE000A101A208031DAA2EA108031DAA2EB91C4A
:100CF000AA2EBE01BF01B023BE013E08FD2100386F
:100D00000319862EBE0ABF001E247D2E2308043C34
:100D1000031C982EBE010130BF00B023BE013E0867
:100D2000122200380319982EBE0ABF001E248F2EEF
:100D30002308053C0318AA2EBE010130BF00B023D2
:100D4000BE013E08272200380319AA2EBE0ABF00A2
:100D50001E24A12EA208031DCD2EA108031DCD2EF9
:100D6000B918CD2EBE01BF01B023BE013E083C2202
:100D700000380319BF2EBE0ABF001E24B62EBE01C6
:100D80000130BF00B023BE013E08512200380319D4
:100D9000CD2EBE0ABF001E24C42EA208031DEF2EB6
:100DA000210BEF2EB918EF2EBE01BF01B023BE01FB
:100DB0003E08662200380319E12EBE0ABF001E2439
:100DC000D82EBE010130BF00B023BE013E087B22F9
:100DD00000380319EF2EBE0ABF001E24E62EA2081B
:100DE000031D112F210B112FB91C112FBE01BF01A3
:100DF000B023BE013E08902200380319032FBE0A1B
:100E0000BF001E24FA2EBE010130BF00B023BE0178
:100E10003E08A42200380319112FBE0ABF001E2469
:100E2000082F8A150A12B92D4108F801400203184B
:100E30001C2F4008F700282FF7010830C200C00D12
:100E4000F70D410877020318F700F80DC20B1F2FAA
:100E500000343C08840083133D1883174008800049
:100E6000840A8001BC0A0319BD0A003478083E08D0
:100E7000C0006430C10014277708BE007808303005
:100E8000031D492FBF1C502FBF19502F3F1A203070
:100E90004C2FBF113F123F14F8077808C0002927D4
:100EA0003E08C0000A30C10014277708BE00780849
:100EB0003030031D612FBF19652F3F1C652F3F1A6E
:100EC0002030F8077808C00029273030BE073E08D8
:100ED000C00029270034B9186F2FA201A101B91C45
:100EE000C42FBE01BF01B023BE013E08DD20003883
:100EF00003197E2FBE0ABF001E24752FB818952F28
:100F0000BE010130BF00B023BE013E08F52000380D
:100F100003198E2FBE0ABF001E24852FB81E952FE1
:100F20003819952FB81238152525B81CAC2FBE01DD
:100F30000130BF00B023BE013E080E210038031966
:100F4000A52FBE0ABF001E249C2FB81EAC2F381937
:100F5000AC2FB81238153924381EB42F3819B42FD5
:100F60000230B80638153812381FBC2F3819BC2F7C
:100F7000A201A10138153813B81DC42F3819C42F88
:0E0F80000230B8063815B8118A150A12C32DB2
:10100000381F08283819082838133815A201A101FB
:10101000B91C0C280230A200B918552AB81EDD28C8
:101020003819DD28B8123815BE01BF018A11B02366
:101030008A15BE013E088A116F218A1500380319EE
:101040002728BE0ABF008A111E248A151A28BE014D
:101050000130BF008A11B0238A15BE013E088A11F3
:101060004B208A15003803193B28BE0ABF008A119D
:101070001E248A152E28C830BF008A110A238A151B
:10108000BE01BF018A11B0238A15BE013E088A1134
:1010900084218A15003803195328BE0ABF008A111B
:1010A0001E248A154628C830BF008A110A238A15D3
:1010B000BE013E088A1199218A1500380319662855
:1010C000BE0ABF008A111E248A155928C830BF00E5
:1010D0008A110A238A15BE013E088A11AE218A159B
:1010E000003803197928BE0ABF008A111E248A1508
:1010F0006C2834083002031D8B2835083102031D8B
:101100008B2836083202031D8B2837083302031D53
:101110008B28B914DD28B910BE01BF018A11B02394
:101120008A15BE013E088A11C3218A1500380319A9
:101130009F28BE0ABF008A111E248A1592280330F8
:10114000BE00C830BF008A110A238A15BE0BA12831
:101150008A119B238A150330BE00C830BF008A1154
:101160000A238A15BE0BAD28BE010130BF008A11CB
:10117000B0238A15BE013E088A11C3218A150038A2
:101180000319C828BE0ABF008A111E248A15BB286D
:101190000330BE00C830BF008A110A238A15BE0B77
:1011A000CA288A119B238A150330BE00C830BF00AD
:1011B0008A110A238A15BE0BD628381EE42838194E
:1011C000E428AF0A38153812B81DEB283819EB2877
:1011D000AF033815B811BE01BF018A11B0238A15BB
:1011E000BE013E088A11D9218A1500380319FE284C
:1011F000BE0ABF008A111E248A15F1280930BE00DC
:10120000BF018A11B0238A15BD013A30BC003008F5
:10121000BE000830BF008A1136278A153A08BF0081
:101220008A111E248A150A30BE00BF018A11B0231C
:101230008A15BD013A30BC003108BE000830BF003D
:101240008A1136278A153A08BF008A111E248A158A
:101250000B30BE00BF018A11B0238A15BD013A30A0
:10126000BC003208BE000830BF008A1136278A153C
:101270003A08BF008A111E248A150C30BE00BF0137
:101280008A11B0238A15BD013A30BC003308BE0074
:101290000830BF008A1136278A153A08BF008A1124
:1012A0001E248A150D30BE00BF018A11B0238A1595
:1012B000BE013E088A11E7218A1500380319662904
:1012C000BE0ABF008A111E248A155929BE010130A9
:1012D000BF008A11B0238A15BE013E088A11EF2192
:1012E0008A15003803197A29BE0ABF008A111E2404
:1012F0008A156D290D30BE000130BF008A11B02360
:101300008A15BE013E088A11E7218A1500380319A3
:101310008F29BE0ABF008A111E248A158229AF08B0
:10132000031DB929B81F992938199929B00A381508
:10133000B813391CA0293819A029B0033815391061
:10134000300FA4290930B0000930BE000130BF00C1
:101350008A11B0238A15BE013E088A114B218A15D5
:1013600000380319B929BE0ABF008A111E248A1544
:10137000AC292F0BE229B81FC2293819C229B10A9A
:101380003815B813391CC9293819C929B1033815BA
:101390003910310FCD290930B1000930BE000130BC
:1013A000BF008A11B0238A15BE013E088A1154215C
:1013B0008A1500380319E229BE0ABF008A111E24CB
:1013C0008A15D5292F08023C031D0D2A391CED2949
:1013D0003819ED29B20338153910B81FF429381916
:1013E000F429B20A3815B813320FF8290930B200BF
:1013F0000930BE000130BF008A11B0238A15BE013A
:101400003E088A115D218A15003803190D2ABE0A8B
:10141000BF008A111E248A15002A2F08033C031DD1
:10142000382A391C182A3819182AB30338153910E4
:10143000B81F1F2A38191F2AB30A3815B813330FDB
:10144000232A0930B3000930BE000130BF008A11E1
:10145000B0238A15BE013E088A1166218A1500381C
:101460000319382ABE0ABF008A111E248A152B2AA6
:101470002F08043C031D3D2AAF012F0F412A0330E2
:10148000AF003008093C0318462AB0013108093C76
:1014900003184B2AB1013208093C0318502AB20143
:1014A0003308093C0318552AB3018A150A12BD2DC9
:1014B000B9185B2AA201381F622A3819622A381328
:1014C0003815A201B81E772A3819772AB8123815AC
:1014D0003008B4003108B5003208B6003308B70050
:1014E000B910A201A101B001B101B201B301B91C4F
:1014F000DD2B381E802A3819802AAF0A3815381299
:10150000B81D872A3819872AAF033815B811BE01CC
:10151000BF018A11B0238A15BE013E088A11242119
:101520008A15003803199A2ABE0ABF008A111E24A0
:101530008A158D2A0B30BE00BF018A11B0238A158F
:10154000BD013A30BC003008BE000830BF008A112F
:1015500036278A153A08BF008A111E248A150C30D6
:10156000BE00BF018A11B0238A15BD013A30BC000C
:101570003108BE000830BF008A1136278A153A08A4
:10158000BF008A111E248A150D30BE00BF018A11CA
:10159000B0238A15BD013A30BC003208BE000830C5
:1015A000BF008A1136278A153A08BF008A111E2407
:1015B0008A150E30BE00BF018A11B0238A15BD0105
:1015C0003A30BC003308BE000830BF008A1136270D
:1015D0008A153A08BF008A111E248A15BE010130FF
:1015E000BF008A11B0238A15BE013E088A1134213A
:1015F0008A1500380319022BBE0ABF008A111E2467
:101600008A15F52A0F30BE000130BF008A11B023C1
:101610008A15BE013E088A1144218A150038031933
:10162000172BBE0ABF008A111E248A150A2BAF0889
:10163000031D412BB81F212B3819212BB00A381557
:10164000B813391C282B3819282BB003381539103A
:10165000300F2C2B0930B0000B30BE000130BF0022
:101660008A11B0238A15BE013E088A114B218A15C2
:1016700000380319412BBE0ABF008A111E248A15A7
:10168000342B2F0B6A2BB81F4A2B38194A2BB10A5F
:101690003815B813391C512B3819512BB103381593
:1016A0003910310F552B0930B1000B30BE0001301D
:1016B000BF008A11B0238A15BE013E088A11542149
:1016C0008A15003803196A2BBE0ABF008A111E242E
:1016D0008A155D2B2F08023C031D952B391C752B99
:1016E0003819752BB20338153910B81F7C2B3819EF
:1016F0007C2BB20A3815B813320F802B0930B20098
:101700000B30BE000130BF008A11B0238A15BE0124
:101710003E088A115D218A1500380319952BBE0AEF
:10172000BF008A111E248A15882B2F08033C031D35
:10173000C02B391CA02B3819A02BB3033815391036
:10174000B81FA72B3819A72BB30A3815B813330FB6
:10175000AB2B0930B3000B30BE000130BF008A1143
:10176000B0238A15BE013E088A1166218A15003809
:101770000319C02BBE0ABF008A111E248A15B32B81
:101780002F08043C031DC52BAF012F0FC92B0330BD
:10179000AF003008093C0318CE2BB0013108093CDA
:1017A0000318D32BB1013208093C0318D82BB2011E
:1017B0003308093C0318DD2BB3018A150A12C92D21
:1017C000840183131F30830583161F149F141F1574
:1017D0009F1107309C008312B001B101B201B30127
:1017E000B4010930B5000130B600B7003810B810A8
:1017F0003811B8113812B8123813B8133910B9109B
:101800003911B9113912FF30BB00BC01BD0183167B
:101810001F109F101F159F111F1383121F179F1753
:1018200083169F1783121F148316091283129412B2
:10183000BB123B088316870083123B163B088316B6
:1018400087008312BB113B08831687000030831288
:10185000940083169400F701F71D392C073083128A
:1018600081018130840083130008C0390F38800063
:1018700083166400813084000008C039770480003A
:101880008A118312302B8A150830F8001F08C739D7
:1018900078049F000630F700F70B4C2C00008A11EB
:1018A0009B238A158530900083160C14C030831258
:1018B0008B043C308F00AF308E00831681137F3055
:1018C00086006C3087008312BB008316860183126A
:1018D0008601B918AE2C3819AE2CA30803199C2C1C
:1018E0002308053C03199C2C23080A3C03199C2C53
:1018F00023080F3C03199C2C2308143C03199C2C2F
:101900002308193C03199C2C23081E3C03199C2C0A
:101910002308233C03199C2C2308283C03199C2CE6
:1019200023082D3C03199C2C2308323C03199C2CC2
:101930002308373C031DAE2C3815BB123B08831619
:101940008700831287160A30BF008A110A238A157E
:10195000BB123B0883168700831287122308283C9A
:101960000318B72CB910B001B101B201B301A2083C
:10197000031DD32C8316861583128619D32C831648
:1019800006168312061AD32C831606178312061B1B
:10199000D32C831686168312861AD32C3819D32C8F
:1019A00038156330A200831686158312861DF62C27
:1019B000831606168312061EF62C8316061783124C
:1019C000061FF62C831686168312861EF62C381DEB
:1019D000F62CA00A20081E3C0318F62C3811A00192
:1019E0003812B811B8133910B81238138316061705
:1019F0008312061B0E2D831686168312861E0E2D4D
:101A0000831606178312061B0E2D83168616831265
:101A1000861E0E2D38190E2DA301381683160617B3
:101A20008312061F262D831686168312861A262DEC
:101A3000831606178312061F262D83168616831219
:101A4000861A262D3819262D3817A3018316061756
:101A50008312061B3E2D831686168312861A3E2D90
:101A6000831606178312061B3E2D831686168312D5
:101A7000861A3E2D38193E2DB816A30183168615F9
:101A800083128619562D831606168312061E562DAE
:101A90008316861583128619562D83160616831211
:101AA000061E562D3819562DB815A3018316861516
:101AB000831286196E2D831606168312061A6E2D52
:101AC00083168615831286196E2D831606168312C9
:101AD000061A6E2D38196E2DB817A30183168615B8
:101AE0008312861D862D831606168312061A862DEE
:101AF000831686158312861D862D8316061683127D
:101B0000061A862D3819862D3914A30183168614DA
:101B100083128618B42DAC0A831686148312861895
:101B2000B42D2C08143C0318B42DAC0183160614F4
:101B300083120618A52D831606158312061DA52DE2
:101B4000B9148A1139248A15B91083160614831220
:101B5000061CB42D8316061583120619B42DB9146C
:101B60008A1125258A15B910A208031DBA2D8A11DC
:101B7000182E8A15220BBD2D00282208023C031DB9
:101B8000C42D8A116B2F8A152208633C031DC92DB1
:061B9000582A692C6300D5
:02400E00393F38
:00000001FF
;PIC16F877A
