:1000000001308A00AD290000FF00030E8301A60025
:100010000A08A5008A010408A7007708A800780844
:10002000A9007908AA007A08AB00831383128B1EFB
:100030001B280B192C28270884002808F7002908FA
:10004000F8002A08F9002B08FA0025088A00260E75
:100050008300FF0E7F0E09008A110A1243280E301A
:10006000E102031C4228613084008313FC308005C8
:100070000310800C800C00080319422840284028F7
:10008000800B3F280800AC0A2C08083C03184A28BB
:100090000130AC0001302C02F83E03185929083E0B
:1000A0005F290030CE00831687010130831287005C
:1000B0004330330784008313341883170008E000AB
:1000C000831686018312600886000330E000F83052
:1000D000E1002F20E00B672883168601FF30831292
:1000E000860059290030CE00831687010230831222
:1000F00087004330350784008313361883170008C0
:10010000E000831686018312600886000330E00059
:10011000F830E1002F20E00B882883168601FF309D
:100120008312860059290030CE00831687010430DF
:1001300083128700433037078400831338188317EE
:100140000008E000831686018312600886000330F1
:10015000E000F830E1002F20E00BA928831686018B
:10016000FF308312860059290030CE0083168701A4
:1001700008308312870043303907840083133A180C
:1001800083170008E000831686018312600886004A
:100190000330E000F830E1002F20E00BCA2883167E
:1001A0008601FF308312860059290030CE00831665
:1001B000870110308312870043303B07840083138C
:1001C0003C1883170008E00083168601831260083C
:1001D00086000330E000F830E1002F20E00BEB2830
:1001E00083168601FF308312860059290030CE0025
:1001F0008316870120308312870043303D07840037
:1002000083133E1883170008E000831686018312CB
:10021000600886000330E000F830E1002F20E00B9A
:100220000C2983168601FF3083128600592900307D
:10023000CE008316870140308312870043303F078A
:1002400084008313401883170008E000831686019A
:100250008312600886000330E000F830E1002F20B0
:10026000E00B2D2983168601FF3083128600592961
:100270000030CE0083168701803083128700433020
:10028000410784008313421883170008E000831697
:1002900086018312600886000330E000F830E10038
:1002A0002F20E00B4E2983168601FF308312860033
:1002B0005929323081000B118A110A121B280A14A5
:1002C0008A100A118207512872289328B428D52849
:1002D000F62817293829F701F801F901FA01DB019D
:1002E000DC01DD01DE015A085904580457040319E2
:1002F000A9292030DF000310D30DD40DD50DD60D64
:10030000DB0DDC0DDD0DDE0D5A085E02031D9229AA
:1003100059085D02031D922958085C02031D9229A9
:1003200057085B02031CA3295708DB025808031C6B
:10033000580FDC025908031C590FDD025A08031C30
:100340005A0FDE020314F70DF80DF90DFA0DDF0B4D
:100350007B295B30840083130800840183131F30E2
:100360008305AC01AD01A0013214B2103211B211FB
:1003700083161F149F141F159F11C0308312C300D2
:10038000F930C400A430C500B030C6009930C700B1
:100390009230C8008230C900F830CA008030CB00EB
:1003A0009030CC00BF30CD00FF30CE00E0308B0469
:1003B00083160108C039033881006430831281003C
:1003C00003178D0183168C130C1483120C0803136E
:1003D000B100083003178D0083168C130C148312A0
:1003E0000C080313B000103003178D0083168C1314
:1003F0000C1483120C080313AF00183003178D0080
:1004000083168C130C1483120C080313AE002E08F1
:10041000A4002F08A3003008A2003108A10024087E
:10042000043C03182C2AFF3A031D282A2308F43C15
:1004300003182C2AFF3A031D282A2208DF3C031840
:100440002C2AFF3A031D282A2108FE3C03182C2AD7
:10045000A401A301A201A1018316051583120519A8
:100460003A2AAD0803193A2AAD032D08023C031CB1
:100470003A2A3211831605158312051D602A321996
:10048000602A2D08093C031C462AAD0A2D08093CA8
:100490000318512A3219512AB218512A3210321532
:1004A000B2142D08093C0318602A3219602AB21CC4
:1004B000602A3214A401A301A201A1013215B210D5
:1004C000831685168312851A6E2AA00803196E2AD0
:1004D000A0032008023C031C6E2AB2118316851665
:1004E0008312851E022BB219022B2008093C031C23
:1004F0007A2AA00A2008093C0318022B0130A10720
:100500000318A20A0319A30A0319A40AB2152108A1
:10051000CF0003178D0103134F0803178C008316B8
:100520008C130C15831203130B08F7008B1383161F
:10053000031755308D00AA308D008C148C189E2A1C
:100540000C117708831203138B042208CF000830A4
:1005500003178D0003134F0803178C0083168C13A9
:100560000C15831203130B08F7008B138316031764
:1005700055308D00AA308D008C148C18BD2A0C11BA
:100580007708831203138B042308CF00103003175E
:100590008D0003134F0803178C0083168C130C1562
:1005A000831203130B08F7008B13831603175530C0
:1005B0008D00AA308D008C148C18DC2A0C11770861
:1005C000831203138B042408CF00183003178D0007
:1005D00003134F0803178C0083168C130C1583121A
:1005E00003130B08F7008B138316031755308D0088
:1005F000AA308D008C148C18FB2A0C1177088312FA
:1006000003138B04321C272C2408D6002308D500A2
:100610002208D4002108D300DA019830D90096309E
:10062000D8008030D7006B217808C2007708C1005D
:100630002408D6002308D5002208D4002108D300BE
:10064000DA010F30D9004230D8004030D7006B219A
:100650007A08D2007908D1007808D0007708CF0056
:100660007A08D6007908D5007808D4007708D30036
:10067000DA01D901D8010A30D7006B210008BF0088
:10068000840A0008C0002408D6002308D5002208E8
:10069000D4002108D300DA010130D9008630D80017
:1006A000A030D7006B217A08D2007908D1007808F1
:1006B000D0007708CF007A08D6007908D5007808EE
:1006C000D4007708D300DA01D901D8010A30D70065
:1006D0006B210008BD00840A0008BE002408D60073
:1006E0002308D5002208D4002108D300DA01D9015B
:1006F0002730D8001030D7006B217A08D200790853
:10070000D1007808D0007708CF007A08D6007908A1
:10071000D5007808D4007708D300DA01D901D801D0
:100720000A30D7006B210008BB00840A0008BC0017
:100730002408D6002308D5002208D4002108D300BD
:10074000DA01D9010330D800E830D7006B217A08EC
:10075000D2007908D1007808D0007708CF007A0855
:10076000D6007908D5007808D4007708D300DA01DC
:10077000D901D8010A30D7006B210008B900840ADA
:100780000008BA002408D6002308D5002208D400A7
:100790002108D300DA01D901D8016430D7006B21D8
:1007A0007A08D2007908D1007808D0007708CF0005
:1007B0007A08D6007908D5007808D4007708D300E5
:1007C000DA01D901D8010A30D7006B210008B7003F
:1007D000840A0008B8002408D6002308D50022089F
:1007E000D4002108D300DA01D901D8010A30D7009A
:1007F0006B217A08D2007908D1007808D0007708F8
:10080000CF007A08D6007908D5007808D400770898
:10081000D300DA01D901D8010A30D7006B210008D2
:10082000B500840A0008B6002408D6002308D500C5
:100830002208D4002108D300DA01D901D8010A30F6
:10084000D7006B210008B300840A0008B4003218F6
:100850003A2CC2010A30C100C001BF00BE01BD0078
:10086000BC01BB00BA01B900B801B700B601B500C0
:08087000B401B3000F2A63007C
:02400E00323F3F
:00000001FF
;PIC16F876
;CRC=08EA  CREATED="21-set-11 07:51"
