:1000000000308A003C280000831A0A28A400030E4E
:10001000A5000F288312A400030EA500A5140A084A
:10002000AB008A018313A40E0408A6002008A700D1
:100030002108A8002208A9002308AA0083128C30F6
:100040008400001C25280C1842288B1E29280B1917
:100050005E28260884002708A0002808A100290897
:10006000A2002A08A3002B088A00250E8300831211
:10007000240EA51883160900FF2383169000003074
:100080008A0091282D080A3C03185728FF3A031DBF
:100090004D282C08DA3C031857282D088F002C080F
:1000A0008E00831605110430831285065B288316A3
:1000B0000511831205110C108A112928AE0A2E0889
:1000C0000E3C0318692883168510023083128506BA
:1000D000AE010B118A112928A101A201A001A301DF
:1000E0003C08031D76283B08031990281030BD00FA
:1000F0000310B90DBA0DA00DA30D3C082302031D7A
:1001000083283B082002031C8C283B08A002031C08
:10011000A3033C08A3020314A10DA20DBD0B782874
:10012000080084011F3083051F1383161F109F10C2
:100130001F119F110730831299001F1383161F147C
:100140009F101F119F111F129F161F1783129F13BD
:100150001F1483160108C039063881003530831218
:100160009000831699010C14C03083128B04B501E2
:10017000B601B608031DD12883169B019C131C14DD
:100180001A088312B800083083169B009C131C14B5
:100190001A088312B7003708AD003808AC000130E8
:1001A000B600B101B001B4013408093C031CE128D8
:1001B0009F149F18D9281E08B0070318B10AB40A63
:1001C000D4283108BA003008B900BC010A30BB009D
:1001D0006C202208B1002108B000B108031DF428EA
:1001E0003008F93C0318F728B101FA30B00035089F
:1001F000023C0319B501350B4729F430BA0024300D
:10020000B9003108BC003008BB006C202208B300E4
:100210002108B2003208FF3CAC00FF30AD003308CB
:10022000031C330FAD022C08B90083169B01831207
:10023000390883169A001C1583120B08A0008B1333
:10024000831655309D00AA309D009C149C182629C9
:100250001C11831220088B042D08B9000830831666
:100260009B008312390883169A001C1583120B0811
:10027000A0008B13831655309D00AA309D009C145E
:100280009C1840291C11831220088B04AE0A831687
:1002900085158312851D5229AF08031D522901308F
:1002A000AF005C2983168515831285195C29AF0878
:0C02B00003195C29AF01B50AB9286300EE
:02400E00D500DB
:00000001FF
;PIC12F675
;CRC=F463  CREATED="25-set-11 09:32"
