:1000000002308A00882A0000FF00030E8301A1004D
:100010000A08A0008A010408A2007708A300780853
:10002000A4007908A5007A08A600831383128B1E0A
:100030001B280B192C28220884002308F700240809
:10004000F8002508F9002608FA0020088A00210E89
:100050008300FF0E7F0E09008A110A122F28010863
:100060009C3EC40044088100AE08031D9428AD19CD
:1000700094282D1D94283508033C031C6328031D78
:1000800045283408E73C031C6328B30A3308323C94
:10009000031D6228B3011F151F194C281E08B90142
:1000A000B800B40A0319B50A37083902031C6228DC
:1000B000031D5E2838083602031862283908B70085
:1000C0003808B60094283708C5003608C400AD1CAF
:1000D0007C28C508031D70284408973C03187A281B
:1000E000C508031D7A284408B53C031C7A28013052
:1000F000AE007B28AD158E28C508031D8328440853
:10010000623C03188D28C508031D8D284408793CDE
:10011000031C8D280130AE008E28AD158316851581
:1001200083122D1385192D172E0B4029AD19402947
:100130002D1D402900302D1B0130C400831685156C
:1001400000308312851901304402031DAC28BB081E
:100150000319AB28BA0A3A29BB0ABA0A3B08023C7F
:1001600003183A293A08C4001330C7008830C60083
:10017000C9014408C800F801F901F701FA0149086A
:10018000031DC52848080319DF281030CA000310D2
:10019000C60DC70DF70DFA0D49087A02031DD228C6
:1001A00048087702031CDB284808F702031CFA03FF
:1001B0004908FA020314F80DF90DCA0BC72878088C
:1001C000C5002D1C0F294508723C03180D29450850
:1001D0007D3C031C0D290230AE00831685150030CE
:1001E000831285190130F700770DC600C60DFC306B
:1001F000C6058316051600308312051A0130F70074
:100200000310F70D7708C607831685160030831292
:10021000851A01304607BC000E29AD153A2945085C
:10022000313C031839294508953C031C3929023013
:10023000AE00831685150030831285190130F70052
:10024000770DC600C60DFC30C605831605160030B6
:100250008312051A0130F7000310F70D7708C6075F
:100260008316851600308312851A01304607BC00BC
:100270003A29AD158316851583122D1385192D176F
:100280002E08023C031DC129AD19C1292D1DC1290C
:10029000831685150030831285190130F700770D1C
:1002A000C400C40DFC30C40583160516003083124B
:1002B000051A0130F7000310F70D7708C4078316FD
:1002C000851600308312851A013044073C02031959
:1002D000C129831685150030831285190130F70076
:1002E000770DC400C40DFC30C4058316051600301C
:1002F0008312051A0130F7000310F70D7708C407C1
:100300008316851600308312851A01304407BD001C
:100310003C08C4003D08C500C601C7012730460798
:10032000840083130008440203199829C60A8E2901
:1003300001304607C9004908CA000630CB004B0807
:10034000F8014A020318A7294A08F700B329F70160
:100350000830CC00CA0DF70D4B0877020318F700E0
:10036000F80DCC0BAA297708C7002730470784006F
:10037000831300084502031DC0290330AE00C129C4
:10038000AD152E08033C031DF229AD19F2292D1DD0
:10039000F229BF08031DE9293E08633C031CE92933
:1003A000C00A0319C10A4008323C031DE829C108EC
:1003B000031DE829C101C001C31543088316870046
:1003C0000030831287190130C207BE0A0319BF0A21
:1003D000F2294208C4004408143C0318F1292D16E0
:1003E000F229AD15B10A0319B20A3208093C031CFF
:1003F000042A031DFF293108C33C031C042A831669
:10040000061083120610162A3108883C031D122A92
:100410003208133C031D122AB201B101AF0A0319BD
:10042000B00A162A83160610831206142F081E3CE3
:10043000031D202AB008031D202AAD150430AE008C
:100440002D1E3B2A1F308B0543124308831687005D
:1004500083120712C3124308831687008312871280
:1004600043134308831687008312071783168601F8
:10047000813083128600AD1D7B2A1F308B0543120D
:1004800043088316870083120712C312430883169A
:100490008700831287124313430883168700831251
:1004A0000713C313430883168700831287172E0888
:1004B000FB3E03187B2A053E7F2A83168601F33014
:1004C000831286007B2A83168601493083128600B8
:1004D0007B2A831686016130831286007B2A83166D
:1004E00086013330831286007B2A831686012530ED
:1004F000831286007B2A0B118A110A121B280A100C
:100500008A140A1182075D2A632A692A6F2A752ACA
:10051000840183131F308305AD112D12AD16AE017A
:1005200083161F149F141F159F1107309C0006305F
:100530008312A7000430A8000530A9000130AA00EA
:100540000330AB000230AC00B301FF30C3003F30DA
:1005500083168500003086000F3087008312C300A9
:100560000030C3008316870183128701831686013A
:10057000FF3083128600AD16AD112D112D12AE0184
:10058000B201B101B001AF01B301B501B401B701CE
:10059000B601B901B801BA01BB012D13BC01BD01FF
:1005A000BF01BE01C101C001C20183161F13831226
:1005B0001F179F1383169F1383121F1483161F1078
:1005C0009F141F159F150030F80083121F08C739AC
:1005D00078049F00A630F700F70BEC2A0000AD1E50
:1005E000162B43154308831687008312071DF12A33
:1005F0004312430883168700831207162D158316AE
:1006000085148312851C062BAD14072BAD108316A1
:1006100005158312051D0E2B2D14152B2D10C3123D
:1006200043088316870083128716AD1283160108CC
:10063000C03981009C3083128100E0308B041F2B75
:02064000630055
:02400E00711F20
:00000001FF
;PIC16F876A
;CRC=3E42  CREATED="13-mar-12 16:53"
