:1000000000308A005B280000A901AA01AB01210889
:10001000A3002008A200A308031D12282208633CA5
:1000200003181A286430A2020030031C0130A30216
:10003000A90A0B28A308031D21282208093C03183C
:1000400029280A30A2020030031C0130A302AA0AA8
:100050001A282208AB000030AD00831687018312F6
:1000600029088700831608108312081083160810C9
:10007000831208140030AD008316870183122A080A
:1000800087008316881083128810831688108312C5
:1000900088140030AD008316870183122B08870077
:1000A000831608118312081183160811831208158C
:1000B0008A110A123329840183131F3083058316A2
:1000C0001F149F141F159F1107309C008312A0015D
:1000D000A101A201A301A701A801AB012C10FF30CF
:1000E000AD0083161F149F141F159F110912831250
:1000F0009412AD122D088316870083122D162D0839
:10010000831687008312AD112D08831687000030F7
:100110008312940083169400F701F71D9A28073084
:10012000831281018130840083130008C0390F38A5
:10013000800083166400813084000008C039770491
:100140008000831290010030F80092000030831686
:1001500092008113FF30860083128601F0308316EF
:1001600087008312AD000030AD0083168701831233
:10017000870160308316880088018312880103306C
:1001800003178D0083168C130C1483120C085B3C30
:100190000319192903308D005B308C0083168C13F2
:1001A0000C15831203130B08F7008B138316031728
:1001B00055308D00AA308D008C148C18DD280C1160
:1001C0007708831203138B04013003178D008C0111
:1001D00083168C130C15831203130B08F7008B1373
:1001E0008316031755308D00AA308D008C148C189F
:1001F000F7280C117708831203138B0402300317BE
:100200008D008C0183168C130C15831203130B08BD
:10021000F7008B138316031755308D00AA308D001D
:100220008C148C1811290C117708831203138B047A
:10023000031701308D0083168C130C1483120C08E5
:100240000313A400023003178D0083168C130C14C3
:1002500083120C080313A3002308A1002408A000A4
:10026000A301A4010428061C372986189D29AC1C6B
:100270009D292108033C031C9D29031D43292008B7
:10028000E63C031C9D29A00A0319A10AAC10200812
:10029000A4002108A300013003178D0003132408D4
:1002A00003178C0083168C130C15831203130B0891
:1002B000F7008B138316031755308D00AA308D007D
:1002C0008C148C1861290C117708831203138B048A
:1002D000023003178D000313230803178C008316C5
:1002E0008C130C15831203130B08F7008B13831662
:1002F000031755308D00AA308D008C148C187E2980
:100300000C117708831203138B0406188F298316A8
:100310000812831208168316881283128812861810
:10032000992983168812831288168316081283125D
:1003300008120B30A800B830A700061CA1298618A7
:10034000AC14061DA5298619082A2C1D082AA00808
:10035000031DAD29A1080319082A20080319A103C8
:10036000A0032C112008A4002108A30001300317CA
:100370008D000313240803178C0083168C130C15AF
:10038000831203130B08F7008B13831603175530E2
:100390008D00AA308D008C148C18CC290C11770894
:1003A000831203138B04023003178D0003132308F9
:1003B00003178C0083168C130C15831203130B0880
:1003C000F7008B138316031755308D00AA308D006C
:1003D0008C148C18E9290C117708831203138B04F1
:1003E0000619FA2983160812831208168316881232
:1003F000831288128619042A83168812831288169B
:1004000083160812831208120B30A800B830A70018
:10041000061D0C2A86192C15061A5D2AAC1D5D2AAC
:10042000A101A001AC112008A4002108A300013003
:1004300003178D000313240803178C0083168C13F5
:100440000C15831203130B08F7008B138316031785
:1004500055308D00AA308D008C148C182D2A0C116B
:100460007708831203138B04023003178D000313E4
:10047000230803178C0083168C130C1583120313A7
:100480000B08F7008B138316031755308D00AA3025
:100490008D008C148C184A2A0C11770883120313D0
:1004A0008B04831608128312081283168812831293
:1004B00088120B30A800B830A700061AAC153229F4
:0204C0006300D7
:02400E00393F38
:00000001FF
;PIC16F877A
