:1000000000308A00EA290000FF00030E8301A100EE
:100010007F08A0000A08A8008A01A00E0408A20018
:100020007708A3007808A4007908A5007A08A6003C
:100030007B08A700831383128C308400001C2228C5
:100040000C183D288B1E26280B19392822088400FD
:100050002308F7002408F8002508F9002608FA000C
:100060002708FB0028088A00210E8300FF0E7F0E60
:1000700009002F160B118A11262800003A088F005C
:1000800039088E000C108A112628F801F901F701B1
:10009000FA014208031D4F2841080319692810304E
:1000A000C3000310BF0DC00DF70DFA0D42087A0210
:1000B000031D5C2841087702031C65284108F702EC
:1000C000031CFA034208FA020314F80DF90DC30BDE
:1000D0005128000000343F08F7004008FA007A0871
:1000E000031D7528F7080319B5287A08031D7C2815
:1000F000013077020319B8287A08031D83280230DB
:1001000077020319BB287A08031D8A280330770277
:100110000319BE287A08031D9128043077020319B9
:10012000C1287A08031D9828053077020319C428CE
:100130007A08031D9F28063077020319C7287A081A
:10014000031DA628073077020319CA287A08031D61
:10015000AD28083077020319CD287A08031DB4288A
:10016000093077020319D028D328C030F800D628E8
:10017000F930F800D628A430F800D628B030F800BE
:10018000D6289930F800D6289230F800D628823048
:10019000F800D628F830F800D6288030F800D628A5
:1001A0009030F800D628FF30F800D62800344218E6
:1001B000DB280510DC280514C218E0288510E1288A
:1001C00085144219E5280511E6280515C219EA2803
:1001D0008511EB288515421AEF280612F02806161D
:1001E000C21AF4288612F5288616421BF928051330
:1001F000FA280517C21BFE288613FF28861700342D
:10020000AE0A85132E0803191529013A0319362958
:10021000033A03194329013A03195029073A0319EC
:100220005D29013A03196A29E62983160508B039C0
:100230008312C1006500831606084F398312C1007E
:1002400066002908C2000130C300D7200516B0019E
:100250003008093C031C302906100614B00A28296E
:1002600005120610061405168517E7290610061450
:1002700000302F180130C1002A08C2004108C30015
:10028000D7208517E729061006140030AF18013073
:10029000C1002B08C2004108C300D7208517E729F9
:1002A0000610061400302F190130C1002C08C200BE
:1002B0004108C300D7208517E7290610061400302F
:1002C000AF190130C1002D08C2004108C300D7207A
:1002D0008517E7294F30650030306600C0010608F9
:1002E000BF003F1E4015BF1EC0150508BF00BF1C44
:1002F0004014BF1DC0144008C100C301C201420820
:10030000033C031CDE294108F7004208F8000319EA
:100310008D290310F70CF80B8929771CBF293608A3
:10032000F7004208F800031999290310F70CF80B9D
:1003300095297718BE29323042078400800A32306E
:10034000420784000008053C0318BE290130F7006D
:100350004208F8000319B0290310F70DF80BAC2977
:100360007708B6040130F7004208F8000319BC29E9
:100370000310F70DF80BB8297708C304DC293230D5
:100380004207840080013108F7004208F800031991
:10039000CD290310F70CF80BC9297718DC29013097
:1003A000F7004208F8000319D9290310F70DF80BDC
:1003B000D5297708FF3AB605C20A7F2943083104D8
:1003C000F8007808B100FF30AE00E729E729643073
:1003D0008100FE2A84011F30830583168E150730A5
:1003E00083129F00FF30AE00B6010130B700B801A4
:1003F00083160108C0390238810083128B168530BC
:10040000900083160C140030F80005388312920017
:100410000A3083169200831286110C3097009501E2
:1004200007309F008316050864000230F700F70BC1
:10043000172A0000000083121F080C1383169F0167
:100440008E15831286110C309700F7306600C0308D
:100450008B04B601B201B301B401B5012F12FF3014
:10046000A900AA00AB00AC00AD002F14AF142F15EB
:10047000AF15380CC000370CBF00C00CBF0C3F30AC
:10048000C005C00CBF0CC00CBF0CC00C3F089500D1
:10049000C00C400C3039F7001708CF3977049700AB
:1004A0003808C0003708BF000330C200E830C10080
:1004B00045207908BC007808BB003808C000370820
:1004C000BF000330C200E830C10045207708BD00FE
:1004D0007A08BE003E08C0003D08BF00C20164307B
:1004E000C10045207908BC007808BB003C08C0006A
:1004F0003B08BF006B207808AA003E08C0003D08FA
:10050000BF00C2016430C10045207708BD007A08F1
:10051000BE003E08C0003D08BF00C2010A30C10055
:1005200045207908BC007808BB003C08C0003B08A7
:10053000BF006B2080307802AB003E08C0003D0851
:10054000BF00C2010A30C10045207708BB007A080D
:10055000BC003C08C0003B08BF006B207808AC0022
:10056000BB132D30AD00311CC42A31103808033CB8
:10057000031CC32A031DC02A3708E63C031CC32AF8
:10058000B70A0319B80AD12AB11CD12AB110B70889
:10059000031DCD2AB8080319D12A37080319B80357
:1005A000B703311DE82A31113808033C031CE32A44
:1005B000031DDE2A3708DD3C031CE32A0A30B70797
:1005C0000318B80AE72A0330B800E730B700FB2A5F
:1005D000B11DFB2AB111B808031DF22A37080A3CE5
:1005E0000318F92A0A30B7020030031C0130B802A0
:1005F000FB2AB801B7012F1EFF2A00292F12392A22
:02060000630095
:02400E00183F59
:00000001FF
;PIC16F628A
